:100000000C9435000C945D000C945D000C945D0024
:100010000C945D000C945D000C945D000C945D00EC
:100020000C945D000C945D000C945D000C945D00DC
:100030000C945D000C945D000C945D000C945D00CC
:100040000C945D000C945D000C948E000C94BB002D
:100050000C945D000C945D000C945D000C945D00AC
:100060000C945D000C945D00EB0011241FBECFEFDB
:10007000D8E0DEBFCDBF11E0A0E0B1E0EEE5F0E1F9
:1000800002C005900D92AE32B107D9F721E0AEE281
:10009000B1E001C01D92AB3CB207E1F710E0C5E34F
:1000A000D0E004C02197FE010E94E605C433D107C9
:1000B000C9F70E9462000C942D080C94000090E295
:1000C0008927089526E040E855E260E070E08EE27E
:1000D00091E00E94F101C1E6D0E26C2F6D278EE223
:1000E00091E00E94EA02CF5FCB37B9F78EE291E050
:1000F0000E94FB02C1E4D0E26C2F6D278EE291E0FA
:100100000E94EA02CF5FCB35B9F78EE291E00E9400
:10011000FB028EE291E00E948401FFCF2F932FB764
:100120002F938F939F93EF93FF93E0913E01F09174
:100130003F018081E0914401F091450182FD19C0A9
:100140009081809147018F5F8F73209148018217C2
:1001500041F0E0914701F0E0E25DFE4F958F809322
:100160004701FF91EF919F918F912F912FBF2F9179
:1001700018958081F6CF1F920F920FB60F9211241F
:100180002F933F934F935F936F937F938F939F939F
:10019000AF93BF93EF93FF938EE291E00E946201D1
:1001A000FF91EF91BF91AF919F918F917F916F914F
:1001B0005F914F913F912F910F900FBE0F901F9025
:1001C00018958EE291E00E9418019C0181E0232B9A
:1001D00009F480E00895EEE2F1E01382128288EEE5
:1001E00093E0A0E0B0E084839583A683B78384E0A6
:1001F00091E09183808385EC90E09587848784ECFF
:1002000090E09787868780EC90E0918B808B81ECE3
:1002100090E0938B828B82EC90E0958B848B86ECC4
:1002200090E0978B868B118E128E138E148E08950C
:10023000FC01818D228D90E0805C9F4F821B910993
:100240008F7399270895FC01918D828D981731F055
:10025000828DE80FF11D858D90E008958FEF9FEF5F
:100260000895FC01918D828D981761F0A28DAE0FDB
:10027000BF2FB11D5D968C91928D9F5F9F73928F62
:1002800090E008958FEF9FEF0895FC01538D448D0A
:10029000252F30E0842F90E0821B930B541710F031
:1002A000CF9608950197089581EE90E0892B49F04B
:1002B00080E090E0892B29F00E94E10081110C94EC
:1002C00000000895FC01A48DA80FB92FB11DA35AF9
:1002D000BF4F2C91848D90E001968F739927848F66
:1002E000A689B7892C93A089B1898C918370806489
:1002F0008C93938D848D981306C00288F389E02D2A
:1003000080818F7D80830895CF93DF93EC01888D6A
:100310008823B9F0AA89BB89E889F9898C9185FD80
:1003200003C0808186FD0DC00FB607FCF7CF8C910E
:1003300085FFF2CF808185FFEDCFCE010E94620163
:10034000E9CFDF91CF910895EF92FF920F931F9322
:10035000CF93DF93EC01F62E81E0888F9B8D8C8DFF
:1003600098131AC0E889F989808185FF15C09FB765
:10037000F894EE89FF896083E889F9898081837028
:10038000806480839FBF81E090E0DF91CF911F91D7
:100390000F91FF90EF9008950B8D10E00F5F1F4FAE
:1003A0000F731127E02E8C8D8E110CC00FB607FC39
:1003B000FACFE889F989808185FFF5CFCE010E94C7
:1003C0006201F1CFEB8DEC0FFD2FF11DE35AFF4FD2
:1003D000F0829FB7F8940B8FEA89FB898081806255
:1003E000D0CFCF92DF92EF92FF921F93CF93DF9304
:1003F000EC016A017B01122FE889F98982E0808390
:10040000C11481EED806E104F104A1F060E079E0C6
:100410008DE390E0A70196010E94C40521503109A7
:10042000410951095695479537952795211580E142
:10043000380798F0E889F989108260E874E88EE15D
:1004400090E0A70196010E94C4052150310941099D
:1004500051095695479537952795EC85FD85832F4E
:1004600099278083EE85FF852083188EEC89FD898E
:100470001083EA89FB89808180618083EA89FB8916
:10048000808188608083EA89FB898081806880839D
:10049000EA89FB8980818F7D8083DF91CF911F91D5
:1004A000FF90EF90DF90CF900895CF93DF93EC0112
:1004B000E881F9810680F781E02D0995EA89FB89B9
:1004C00080818F7E8083EA89FB898081877F80831A
:1004D000EA89FB8980818F778083EA89FB89808123
:1004E0008F7D80838A8D898FDF91CF91089590E0F1
:1004F00080E008950895CF92DF92EF92FF920F93DC
:100500001F93CF93DF937C01EB016A0110E000E0C1
:100510000C151D0571F0D701ED91FC910190F08152
:10052000E02D6991C7010995892B19F00F5F1F4FC5
:10053000EFCFC801DF91CF911F910F91FF90EF9006
:10054000DF90CF9008956115710579F0FB0101905E
:100550000020E9F73197AF01461B570BDC01ED9105
:10056000FC910280F381E02D099490E080E00895F1
:10057000EF92FF920F931F93CF93DF938C017B0138
:10058000D0E0C0E0F701EC0FFD1F6491662361F03D
:10059000D801ED91FC910190F081E02DC801099501
:1005A000892B11F02196EECFCE01DF91CF911F91D3
:1005B0000F91FF90EF900895FB0144815581608178
:1005C0007181DC01ED91FC910280F381E02D0994B1
:1005D0000C94A302DC01ED91FC910190F081E02DDF
:1005E00009949C01CB01DB01ED91FC910190F0811C
:1005F000E02DB901099462E171E00C94A3020F931C
:100600001F93CF93DF93EC010E94B8028C01CE01BF
:100610000E94FB02800F911FDF91CF911F910F91DC
:1006200008950F931F93CF93DF93EC010E94DC0298
:100630008C01CE010E94FB02800F911FDF91CF91B0
:100640001F910F9108950F931F93CF93DF93EC01A8
:100650000E94A3028C01CE010E94FB02800F911F19
:10066000DF91CF911F910F9108950F931F93CF9317
:10067000DF93EC010E94EA028C01CE010E94FB0292
:10068000800F911FDF91CF911F910F9108950F93CC
:100690001F93CF93DF93EC010E94F1028C01CE01F6
:1006A0000E94FB02800F911FDF91CF911F910F914C
:1006B00008954F925F926F927F92AF92BF92CF92C6
:1006C000DF92EF92FF920F931F93CF93DF93CDB7FB
:1006D000DEB7A9970FB6F894DEBF0FBECDBF8C0171
:1006E0004AA35BA36CA37DA319A2223008F42AE0DD
:1006F0005E0181E2A80EB11CC22ED12CF12CE12C9E
:100700006AA17BA18CA19DA1A70196010E94C405AD
:100710006EA37FA388A799A74AA05BA06CA07DA029
:100720002AA33BA34CA35DA3EEA19E2F905DEA30CC
:1007300010F09EA1995CF50192935F014C145D0449
:100740006E047F04E8F6BF01C8010E94A302A996C7
:100750000FB6F894DEBF0FBECDBFDF91CF911F91D2
:100760000F91FF90EF90DF90CF90BF90AF907F9070
:100770006F905F904F900895CF92DF92EF92FF922B
:100780000F931F93CF93DF93EC016A017B01211537
:10079000310579F4E881F9810190F081E02D642F31
:1007A000DF91CF911F910F91FF90EF90DF90CF904D
:1007B00009942A303105E9F42AE0F7FE1AC06DE207
:1007C0000E94EA028C0144275527BA014C195D09A1
:1007D0006E097F092AE0CE010E945903800F911F04
:1007E000DF91CF911F910F91FF90EF90DF90CF900D
:1007F0000895B701A601CE01DF91CF911F910F910E
:10080000FF90EF90DF90CF900C9459039A01AB01C9
:10081000770F660B770B0C94BC030F931F93CF934A
:10082000DF93EC010E9406048C01CE010E94FB02C2
:10083000800F911FDF91CF911F910F9108950F931A
:100840001F93CF93DF93EC010E94BC038C01CE0178
:100850000E94FB02800F911FDF91CF911F910F919A
:1008600008952115310541F4DC01ED91FC910190D1
:10087000F081E02D642F09940C9459039A01462FBE
:1008800050E070E060E00C9431040F931F93CF931D
:10089000DF93EC010E943E048C01CE010E94FB021A
:1008A000800F911FDF91CF911F910F9108959A01B1
:1008B000AB0170E060E00C9431040F931F93CF9371
:1008C000DF93EC010E9457048C01CE010E94FB02D1
:1008D000800F911FDF91CF911F910F9108950F937A
:1008E0001F93CF93DF93EC010E9431048C01CE0162
:1008F0000E94FB02800F911FDF91CF911F910F91FA
:1009000008958F929F92AF92BF92FF920F931F9381
:10091000CF93DF93CDB7DEB72E970FB6F894DEBF37
:100920000FBECDBF9E878D8749835A836B837C839F
:10093000F22E9A01AB01CB01B9010E94230865E1B7
:1009400071E081112FC089819A81AB81BC81BF7711
:100950008D839E83AF83B8872FEF3FEF4FE75FE72D
:10096000BC01CD010E94230881110EC02FEF3FEF83
:100970004FE75FE76D817E818F8198850E945906E0
:1009800069E171E0181674F02FEF3FEF4FE75FE475
:1009900069817A818B819C810E94B1071816ACF421
:1009A0006DE171E08D859E852E960FB6F894DEBFC1
:1009B0000FBECDBFDF91CF911F910F91FF90BF90E0
:1009C000AF909F908F900C94A3022FEF3FEF4FE7D3
:1009D0005FEC69817A818B819C810E94590687FD39
:1009E000DFCF20E030E0A90169817A818B819C8191
:1009F0000E94590610E000E087FF0FC06DE28D8570
:100A00009E850E94EA028C0189819A81AB81BC811A
:100A1000B05889839A83AB83BC83B12C80E090E08B
:100A2000A0E0BFE38D839E83AF83B887FB1481F082
:100A300020E030E040E251E46D817E818F81988535
:100A40000E945E066D837E838F839887B394EECF7A
:100A500029813A814B815C816D817E818F8198856E
:100A60000E94ED0569837A838B839C830E94D00664
:100A70006D837E838F8398870E94FF0669877A87BC
:100A80008B879C879B01AC0169817A818B819C81DA
:100A90000E94EC0569837A838B839C832AE04D81D5
:100AA0005E816F8178858D859E850E945903080F30
:100AB000191FFF2039F06EE28D859E850E94EA02A3
:100AC000080F191FFA949FEFF916A9F120E030E002
:100AD00040E251E469817A818B819C810E94B60752
:100AE00069837A838B839C830E94D0064B014AE002
:100AF00050E08D859E850E945704080F191FC40180
:100B0000B0E0A0E08D839E83AF83B887B401CD01B0
:100B10000E94FF066D837E838F8398879B01AC01C3
:100B200069817A818B819C810E94EC0569837A833B
:100B30008B839C83C7CFC8012E960FB6F894DEBF77
:100B40000FBECDBFDF91CF911F910F91FF90BF904E
:100B5000AF909F908F9008950C9481040F931F93F2
:100B6000CF93DF93EC010E9481048C01CE010E949F
:100B7000FB02800F911FDF91CF911F910F9108957C
:100B80000E9428080E942808A1E21A2EAA1BBB1B5B
:100B9000FD010DC0AA1FBB1FEE1FFF1FA217B30749
:100BA000E407F50720F0A21BB30BE40BF50B661F5F
:100BB000771F881F991F1A9469F760957095809523
:100BC00090959B01AC01BD01CF010895EE0FFF1F71
:100BD0000590F491E02D09945058BB27AA270E9454
:100BE00004060C9477070E94690738F00E9470078A
:100BF00020F039F49F3F19F426F40C9466070EF4A4
:100C0000E095E7FB0C946007E92F0E94880758F3F2
:100C1000BA17620773078407950720F079F4A6F5E1
:100C20000C94AA070EF4E0950B2EBA2FA02D0B0101
:100C3000B90190010C01CA01A0011124FF27591B21
:100C400099F0593F50F4503E68F11A16F040A22F27
:100C5000232F342F4427585FF3CF46953795279598
:100C6000A795F0405395C9F77EF41F16BA0B620B97
:100C7000730B840BBAF09150A1F0FF0FBB1F661FDE
:100C8000771F881FC2F70EC0BA0F621F731F841F21
:100C900048F4879577956795B795F7959E3F08F047
:100CA000B0CF9395880F08F09927EE0F9795879509
:100CB00008950E943C0708F481E008950E9472069E
:100CC0000C9477070E94700758F00E94690740F063
:100CD00029F45F3F29F00C94600751110C94AB0785
:100CE0000C9466070E94880768F39923B1F3552393
:100CF00091F3951B550BBB27AA276217730784072F
:100D000038F09F5F5F4F220F331F441FAA1FA9F3C4
:100D100035D00E2E3AF0E0E832D091505040E695B2
:100D2000001CCAF72BD0FE2F29D0660F771F881F13
:100D3000BB1F261737074807AB07B0E809F0BB0B06
:100D4000802DBF01FF2793585F4F3AF09E3F51051A
:100D500078F00C9460070C94AB075F3FE4F3983E87
:100D6000D4F3869577956795B795F7959F5FC9F703
:100D7000880F911D9695879597F90895E1E0660F84
:100D8000771F881FBB1F621773078407BA0720F0FD
:100D9000621B730B840BBA0BEE1F88F7E095089566
:100DA0000E94900788F09F5798F0B92F9927B75164
:100DB000B0F0E1F0660F771F881F991F1AF0BA95FF
:100DC000C9F714C0B13091F00E94AA07B1E00895AC
:100DD0000C94AA07672F782F8827B85F39F0B93F9E
:100DE000CCF3869577956795B395D9F73EF49095B2
:100DF0008095709561957F4F8F4F9F4F0895E89430
:100E000009C097FB3EF490958095709561957F4F52
:100E10008F4F9F4F9923A9F0F92F96E9BB27939500
:100E2000F695879577956795B795F111F8CFFAF410
:100E3000BB0F11F460FF1BC06F5F7F4F8F4F9F4F41
:100E400016C0882311F096E911C0772321F09EE89F
:100E5000872F762F05C0662371F096E8862F70E005
:100E600060E02AF09A95660F771F881FDAF7880FDF
:100E70009695879597F90895990F0008550FAA0B35
:100E8000E0E8FEEF16161706E807F907C0F012169D
:100E90001306E407F50798F0621B730B840B950BA0
:100EA00039F40A2661F0232B242B252B21F40895F5
:100EB0000A2609F4A140A6958FEF811D811D089592
:100EC00097F99F6780E870E060E008959FEF80ECFD
:100ED000089500240A9416161706180609060895A0
:100EE00000240A9412161306140605060895092E06
:100EF0000394000C11F4882352F0BB0F40F4BF2B75
:100F000011F460FF04C06F5F7F4F8F4F9F4F0895B4
:100F100057FD9058440F551F59F05F3F71F04795AA
:100F2000880F97FB991F61F09F3F79F0879508958F
:100F3000121613061406551FF2CF4695F1DF08C0AE
:100F4000161617061806991FF1CF869571056105CB
:100F500008940895E894BB2766277727CB0197F973
:100F600008950E943C0708F48FEF08950E94C90776
:100F70000C9477070E94690738F00E94700720F0F0
:100F8000952311F00C9460070C94660711240C94BF
:100F9000AB070E94880770F3959FC1F3950F50E04F
:100FA000551F629FF001729FBB27F00DB11D639F1B
:100FB000AA27F00DB11DAA1F649F6627B00DA11DC1
:100FC000661F829F2227B00DA11D621F739FB00D67
:100FD000A11D621F839FA00D611D221F749F3327D7
:100FE000A00D611D231F849F600D211D822F762F70
:100FF0006A2F11249F5750409AF0F1F088234AF04D
:10100000EE0FFF1FBB1F661F771F881F91505040B8
:10101000A9F79E3F510580F00C9460070C94AB0734
:101020005F3FE4F3983ED4F3869577956795B7953F
:10103000F795E7959F5FC1F7FE2B880F911D969559
:10104000879597F908950E943C07880B990B08959E
:0E10500081E090E0F8940C942D08F894FFCF06
:10105E0000000000A4017B0245018401180131014A
:10106E0023010D0A006E616E00696E66006F766672
:0E107E000000000000C0057B0277027A02002D
:00000001FF
