:100000000C9435000C945D000C945D000C945D0024
:100010000C945D000C945D000C945D000C945D00EC
:100020000C945D000C945D000C945D000C945D00DC
:100030000C945D000C945D000C945D000C945D00CC
:100040000C945D000C945D000C94B4000C94E100E1
:100050000C945D000C945D000C945D000C945D00AC
:100060000C945D000C945D00110111241FBECFEFB4
:10007000D8E0DEBFCDBF11E0A0E0B1E0EAEAF0E1F8
:1000800002C005900D92A433B107D9F721E0A4E393
:10009000B1E001C01D92A13DB207E1F710E0C5E358
:1000A000D0E004C02197FE010E940C06C433D107A2
:1000B000C9F70E945F000C9453080C94000000D014
:1000C00000D000D0CDB7DEB726E040E855E260E0D2
:1000D00070E084E391E00E94170287B18C6F87B9CA
:1000E00086E0E0E0F1E0DE01119601900D928A9544
:1000F000E1F710E0EE24E394F12C4AE050E0612FA8
:1001000084E391E00E946B04FE01319630E020E030
:10011000412F50E08191B70102C0660F771F8A9589
:10012000E2F7CB01BA01022E02C0759567950A94D9
:10013000E2F79BB160FF15C0892B8BB92F5F3F4F52
:100140002630310539F7103409F410E01F5F7FEFD6
:1001500089E698E1715080409040E1F700C00000CE
:10016000CCCF80958923E9CF2F932FB72F938F93EF
:100170009F93EF93FF93E0914401F09145018081BB
:10018000E0914A01F0914B0182FD19C0908180916C
:100190004D018F5F8F7320914E01821741F0E091E6
:1001A0004D01F0E0EC5CFE4F958F80934D01FF9187
:1001B000EF919F918F912F912FBF2F911895808153
:1001C000F6CF1F920F920FB60F9211242F933F93E9
:1001D0004F935F936F937F938F939F93AF93BF934F
:1001E000EF93FF9384E391E00E948801FF91EF91E8
:1001F000BF91AF919F918F917F916F915F914F913F
:100200003F912F910F900FBE0F901F90189584E390
:1002100091E00E943E019C0181E0232B09F480E0E3
:100220000895E4E3F1E01382128288EE93E0A0E007
:10023000B0E084839583A683B7838BE091E09183BC
:10024000808385EC90E09587848784EC90E09787A5
:10025000868780EC90E0918B808B81EC90E0938B93
:10026000828B82EC90E0958B848B86EC90E0978B70
:10027000868B118E128E138E148E0895FC01818D43
:10028000228D90E0805C9F4F821B91098F7399278C
:100290000895FC01918D828D981731F0828DE80FC1
:1002A000F11D858D90E008958FEF9FEF0895FC017B
:1002B000918D828D981761F0A28DAE0FBF2FB11D69
:1002C0005D968C91928D9F5F9F73928F90E00895C1
:1002D0008FEF9FEF0895FC01538D448D252F30E063
:1002E000842F90E0821B930B541710F0CF96089543
:1002F0000197089587E091E0892B49F080E090E034
:10030000892B29F00E94070181110C9400000895A7
:10031000FC01A48DA80FB92FB11DA35ABF4F2C917A
:10032000848D90E001968F739927848FA689B78971
:100330002C93A089B1898C91837080648C93938D68
:10034000848D981306C00288F389E02D80818F7D0B
:1003500080830895CF93DF93EC01888D8823B9F0D3
:10036000AA89BB89E889F9898C9185FD03C08081C0
:1003700086FD0DC00FB607FCF7CF8C9185FFF2CF3D
:10038000808185FFEDCFCE010E948801E9CFDF910A
:10039000CF910895EF92FF920F931F93CF93DF9326
:1003A000EC01F62E81E0888F9B8D8C8D98131AC0FE
:1003B000E889F989808185FF15C09FB7F894EE8997
:1003C000FF896083E889F9898081837080648083F4
:1003D0009FBF81E090E0DF91CF911F910F91FF903F
:1003E000EF9008950B8D10E00F5F1F4F0F731127D3
:1003F000E02E8C8D8E110CC00FB607FCFACFE88969
:10040000F989808185FFF5CFCE010E948801F1CF67
:10041000EB8DEC0FFD2FF11DE35AFF4FF0829FB7DC
:10042000F8940B8FEA89FB8980818062D0CFCF92CC
:10043000DF92EF92FF921F93CF93DF93EC016A015B
:100440007B01122FE889F98982E08083C11481EE53
:10045000D806E104F104A1F060E079E08DE390E0DA
:10046000A70196010E94EA0521503109410951096D
:100470005695479537952795211580E1380798F0CF
:10048000E889F989108260E874E88EE190E0A701BC
:1004900096010E94EA0521503109410951095695FA
:1004A000479537952795EC85FD85832F9927808380
:1004B000EE85FF852083188EEC89FD891083EA89FB
:1004C000FB89808180618083EA89FB8980818860E3
:1004D0008083EA89FB89808180688083EA89FB893F
:1004E00080818F7D8083DF91CF911F91FF90EF906E
:1004F000DF90CF900895CF93DF93EC01E881F981ED
:100500000680F781E02D0995EA89FB8980818F7E3D
:100510008083EA89FB898081877F8083EA89FB89E0
:1005200080818F778083EA89FB8980818F7D8083BA
:100530008A8D898FDF91CF91089590E080E00895B2
:100540000895CF92DF92EF92FF920F931F93CF9374
:10055000DF937C01EB016A0110E000E00C151D0542
:1005600071F0D701ED91FC910190F081E02D69913E
:10057000C7010995892B19F00F5F1F4FEFCFC801F5
:10058000DF91CF911F910F91FF90EF90DF90CF906F
:1005900008956115710579F0FB0101900020E9F7DC
:1005A0003197AF01461B570BDC01ED91FC910280A6
:1005B000F381E02D099490E080E00895EF92FF929E
:1005C0000F931F93CF93DF938C017B01D0E0C0E0AA
:1005D000F701EC0FFD1F6491662361F0D801ED91E6
:1005E000FC910190F081E02DC8010995892B11F053
:1005F0002196EECFCE01DF91CF911F910F91FF9009
:10060000EF900895FB014481558160817181DC0187
:10061000ED91FC910280F381E02D09940C94C902C4
:10062000DC01ED91FC910190F081E02D09949C0199
:10063000CB01DB01ED91FC910190F081E02DB9013E
:10064000099469E171E00C94C9020F931F93CF9351
:10065000DF93EC010E94DE028C01CE010E94210397
:10066000800F911FDF91CF911F910F9108950F93EC
:100670001F93CF93DF93EC010E9402038C01CE0104
:100680000E942103800F911FDF91CF911F910F9145
:1006900008950F931F93CF93DF93EC010E94C9023B
:1006A0008C01CE010E942103800F911FDF91CF9119
:1006B0001F910F9108950F931F93CF93DF93EC0138
:1006C0000E9410038C01CE010E942103800F911F14
:1006D000DF91CF911F910F9108950F931F93CF93A7
:1006E000DF93EC010E9417038C01CE010E942103CD
:1006F000800F911FDF91CF911F910F9108954F921D
:100700005F926F927F92AF92BF92CF92DF92EF9201
:10071000FF920F931F93CF93DF93CDB7DEB7A997C7
:100720000FB6F894DEBF0FBECDBF8C014AA35BA30A
:100730006CA37DA319A2223008F42AE05E0181E2B5
:10074000A80EB11CC22ED12CF12CE12C6AA17BA1E8
:100750008CA19DA1A70196010E94EA056EA37FA32B
:1007600088A799A74AA05BA06CA07DA02AA33BA361
:100770004CA35DA3EEA19E2F905DEA3010F09EA1E8
:10078000995CF50192935F014C145D046E047F0443
:10079000E8F6BF01C8010E94C902A9960FB6F894F5
:1007A000DEBF0FBECDBFDF91CF911F910F91FF90A4
:1007B000EF90DF90CF90BF90AF907F906F905F9061
:1007C0004F900895CF92DF92EF92FF920F931F9375
:1007D000CF93DF93EC016A017B012115310579F498
:1007E000E881F9810190F081E02D642FDF91CF91B4
:1007F0001F910F91FF90EF90DF90CF9009942A30D6
:100800003105E9F42AE0F7FE1AC06DE20E941003F8
:100810008C0144275527BA014C195D096E097F09DF
:100820002AE0CE010E947F03800F911FDF91CF91BC
:100830001F910F91FF90EF90DF90CF900895B70137
:10084000A601CE01DF91CF911F910F91FF90EF9004
:10085000DF90CF900C947F039A01AB01770F660B6A
:10086000770B0C94E2030F931F93CF93DF93EC016C
:100870000E942C048C01CE010E942103800F911F45
:10088000DF91CF911F910F9108950F931F93CF93F5
:10089000DF93EC010E94E2038C01CE010E94210350
:1008A000800F911FDF91CF911F910F910895211516
:1008B000310541F4DC01ED91FC910190F081E02DD6
:1008C000642F09940C947F039A01462F50E070E046
:1008D00060E00C9457040F931F93CF93DF93EC01C8
:1008E0000E9464048C01CE010E942103800F911F9D
:1008F000DF91CF911F910F9108959A01AB0170E0A4
:1009000060E00C9457040F931F93CF93DF93EC0197
:100910000E947D048C01CE010E942103800F911F53
:10092000DF91CF911F910F9108950F931F93CF9354
:10093000DF93EC010E9457048C01CE010E94210339
:10094000800F911FDF91CF911F910F9108958F928A
:100950009F92AF92BF92FF920F931F93CF93DF931B
:10096000CDB7DEB72E970FB6F894DEBF0FBECDBF62
:100970009E878D8749835A836B837C83F22E9A01ED
:10098000AB01CB01B9010E9449086CE171E0811112
:100990002FC089819A81AB81BC81BF778D839E8373
:1009A000AF83B8872FEF3FEF4FE75FE7BC01CD0183
:1009B0000E94490881110EC02FEF3FEF4FE75FE71C
:1009C0006D817E818F8198850E947F0660E271E053
:1009D000181674F02FEF3FEF4FE75FE469817A81DB
:1009E0008B819C810E94D7071816ACF464E271E0F9
:1009F0008D859E852E960FB6F894DEBF0FBECDBFB7
:100A0000DF91CF911F910F91FF90BF90AF909F907A
:100A10008F900C94C9022FEF3FEF4FE75FEC698195
:100A20007A818B819C810E947F0687FDDFCF20E049
:100A300030E0A90169817A818B819C810E947F06C7
:100A400010E000E087FF0FC06DE28D859E850E945B
:100A500010038C0189819A81AB81BC81B058898354
:100A60009A83AB83BC83B12C80E090E0A0E0BFE32D
:100A70008D839E83AF83B887FB1481F020E030E044
:100A800040E251E46D817E818F8198850E948406C9
:100A90006D837E838F839887B394EECF29813A81CB
:100AA0004B815C816D817E818F8198850E941306C8
:100AB00069837A838B839C830E94F6066D837E8391
:100AC0008F8398870E94250769877A878B879C8701
:100AD0009B01AC0169817A818B819C810E94120605
:100AE00069837A838B839C832AE04D815E816F8149
:100AF00078858D859E850E947F03080F191FFF2032
:100B000039F06EE28D859E850E941003080F191F33
:100B1000FA949FEFF916A9F120E030E040E251E4A9
:100B200069817A818B819C810E94DC0769837A8349
:100B30008B839C830E94F6064B014AE050E08D8532
:100B40009E850E947D04080F191FC401B0E0A0E03B
:100B50008D839E83AF83B887B401CD010E942507A2
:100B60006D837E838F8398879B01AC0169817A8135
:100B70008B819C810E94120669837A838B839C837C
:100B8000C7CFC8012E960FB6F894DEBF0FBECDBFFB
:100B9000DF91CF911F910F91FF90BF90AF909F90E9
:100BA0008F9008950C94A7040F931F93CF93DF9316
:100BB000EC010E94A7048C01CE010E942103800F4A
:100BC000911FDF91CF911F910F9108950E944E08C0
:100BD0000E944E08A1E21A2EAA1BBB1BFD010DC0EC
:100BE000AA1FBB1FEE1FFF1FA217B307E407F507DD
:100BF00020F0A21BB30BE40BF50B661F771F881FB9
:100C0000991F1A9469F760957095809590959B014E
:100C1000AC01BD01CF010895EE0FFF1F0590F491C7
:100C2000E02D09945058BB27AA270E942A060C944D
:100C30009D070E948F0738F00E94960720F039F434
:100C40009F3F19F426F40C948C070EF4E095E7FB13
:100C50000C948607E92F0E94AE0758F3BA17620773
:100C600073078407950720F079F4A6F50C94D00754
:100C70000EF4E0950B2EBA2FA02D0B01B9019001B7
:100C80000C01CA01A0011124FF27591B99F0593FFB
:100C900050F4503E68F11A16F040A22F232F342F43
:100CA0004427585FF3CF469537952795A795F04091
:100CB0005395C9F77EF41F16BA0B620B730B840BA6
:100CC000BAF09150A1F0FF0FBB1F661F771F881F5E
:100CD000C2F70EC0BA0F621F731F841F48F48795B6
:100CE00077956795B795F7959E3F08F0B0CF9395A8
:100CF000880F08F09927EE0F9795879508950E9421
:100D0000620708F481E008950E9498060C949D07FC
:100D10000E94960758F00E948F0740F029F45F3F29
:100D200029F00C94860751110C94D1070C948C0770
:100D30000E94AE0768F39923B1F3552391F3951BF5
:100D4000550BBB27AA2762177307840738F09F5FEC
:100D50005F4F220F331F441FAA1FA9F335D00E2E59
:100D60003AF0E0E832D091505040E695001CCAF7C6
:100D70002BD0FE2F29D0660F771F881FBB1F261789
:100D800037074807AB07B0E809F0BB0B802DBF0160
:100D9000FF2793585F4F3AF09E3F510578F00C942F
:100DA00086070C94D1075F3FE4F3983ED4F3869511
:100DB00077956795B795F7959F5FC9F7880F911D50
:100DC0009695879597F90895E1E0660F771F881F3C
:100DD000BB1F621773078407BA0720F0621B730BEF
:100DE000840BBA0BEE1F88F7E09508950E94B607B2
:100DF00088F09F5798F0B92F9927B751B0F0E1F0DC
:100E0000660F771F881F991F1AF0BA95C9F714C08B
:100E1000B13091F00E94D007B1E008950C94D00752
:100E2000672F782F8827B85F39F0B93FCCF38695C4
:100E300077956795B395D9F73EF490958095709521
:100E400061957F4F8F4F9F4F0895E89409C097FB9E
:100E50003EF490958095709561957F4F8F4F9F4F91
:100E60009923A9F0F92F96E9BB279395F6958795D5
:100E700077956795B795F111F8CFFAF4BB0F11F498
:100E800060FF1BC06F5F7F4F8F4F9F4F16C088233F
:100E900011F096E911C0772321F09EE8872F762F75
:100EA00005C0662371F096E8862F70E060E02AF0B6
:100EB0009A95660F771F881FDAF7880F96958795A2
:100EC00097F90895990F0008550FAA0BE0E8FEEF77
:100ED00016161706E807F907C0F012161306E407FE
:100EE000F50798F0621B730B840B950B39F40A26F7
:100EF00061F0232B242B252B21F408950A2609F4D5
:100F0000A140A6958FEF811D811D089597F99F67D8
:100F100080E870E060E008959FEF80EC0895002481
:100F20000A941616170618060906089500240A944E
:100F300012161306140605060895092E0394000CD4
:100F400011F4882352F0BB0F40F4BF2B11F460FF63
:100F500004C06F5F7F4F8F4F9F4F089557FD90588C
:100F6000440F551F59F05F3F71F04795880F97FB6D
:100F7000991F61F09F3F79F0879508951216130627
:100F80001406551FF2CF4695F1DF08C01616170656
:100F90001806991FF1CF869571056105089408958B
:100FA000E894BB2766277727CB0197F908950E941D
:100FB000620708F48FEF08950E94EF070C949D07D5
:100FC0000E948F0738F00E94960720F0952311F0B9
:100FD0000C9486070C948C0711240C94D1070E9462
:100FE000AE0770F3959FC1F3950F50E0551F629FB8
:100FF000F001729FBB27F00DB11D639FAA27F00D72
:10100000B11DAA1F649F6627B00DA11D661F829F98
:101010002227B00DA11D621F739FB00DA11D621F7D
:10102000839FA00D611D221F749F3327A00D611D9A
:10103000231F849F600D211D822F762F6A2F11247C
:101040009F5750409AF0F1F088234AF0EE0FFF1FAF
:10105000BB1F661F771F881F91505040A9F79E3F06
:10106000510580F00C9486070C94D1075F3FE4F3A0
:10107000983ED4F3869577956795B795F795E7955C
:101080009F5FC1F7FE2B880F911D9695879597F965
:1010900008950E946207880B990B089581E090E003
:0A10A000F8940C945308F894FFCF65
:1010AA000203040506070000000000CA01A1026B42
:1010BA0001AA013E01570149010D0A006E616E0045
:1010CA00696E66006F76660000000000E605A10200
:0410DA009D02A002D1
:00000001FF
